:100000000C942A000C9447000C9447000C94470071
:100010000C9447000C9447000C9447000C94470044
:100020000C9447000C9447000C9447000C94C900B2
:100030000C9447000C9405010C9447000C94470065
:100040000C9447000C9447000C9447000C94470014
:100050000C94470011241FBECFE5D4E0DEBFCDBF16
:1000600010E0A0E6B0E0E0ECF5E002C005900D92F3
:10007000A436B107D9F720E0A4E6B0E001C01D9294
:10008000A137B207E1F70E9449000C94DE020C94FC
:100090000000CF93DF93CDB7DEB729970FB6F89462
:1000A000DEBF0FBECDBF88EF8ABB8FEF87BB12BA12
:1000B00095E793BF19BE8CBF81BB12BA1E821F8207
:1000C0001886198685E08A8319821B8288ED8C83C5
:1000D00086E88D83CE0101960E943D0178941FEF42
:1000E00061E070E084E690E00E945B010E9476018E
:1000F0008823E1F3809164008133B9F0823381F782
:100100006E817F81888599852DEC3CEC4CE45EE323
:100110000E9485016E837F838887998761E070E004
:1001200082E690E00E94490119C06E817F81888536
:1001300099852DEC3CEC4CE45EE30E9484016E83D7
:100140007F838887998761E070E080E690E00E9475
:1001500049010E9468018823E1F304C00E946801FC
:100160008823E1F32E813F814885598560E070E066
:1001700080E89FE30E94840120E030E04FE753E4F1
:100180000E9471020E94F1016CBF14BB8CB785BB49
:10019000A7CF1F920F920FB60F9211242F934F9358
:1001A0005F938F939F93EF93FF93F8942CB14091BB
:1001B0006500509166008091670090916800481733
:1001C0005907B0F42032A1F080916500909166004B
:1001D000E0916900F0916A00E80FF91F2083809197
:1001E000650090916600019690936600809365008B
:1001F0007894FF91EF919F918F915F914F912F9103
:100200000F900FBE0F901F9018951F920F920FB670
:100210000F9211242F933F938F939F93EF93FF930C
:10022000F89480916B0090916C00019690936C0013
:1002300080936B0020916B0030916C0080916D0079
:1002400090916E002817390760F480916B009091AF
:100250006C00E0916F00F0917000E80FF91F808151
:100260008CB97894FF91EF919F918F913F912F914D
:100270000F900FBE0F901F901895FC01808180BDDC
:10028000818189B982818BB983818AB9848180BD5A
:1002900008959093700080936F0070936E00609348
:1002A0006D0010926C0010926B005D9BFECFFC0104
:1002B00080818CB9089590936A008093690070934F
:1002C00068006093670010926600109265000895C0
:1002D00040916B0050916C0020916D0030916E0048
:1002E00081E04217530708F480E0089540916500CB
:1002F00050916600209167003091680081E04217BC
:10030000530708F480E008955058BB27AA270E949D
:100310009C010C9437020E94290238F00E9430029E
:1003200020F039F49F3F19F426F40C9426020EF4C1
:10033000E095E7FB0C942002E92F0E94480258F355
:10034000BA17620773078407950720F079F4A6F5BA
:100350000C946A020EF4E0950B2EBA2FA02D0B011F
:10036000B90190010C01CA01A0011124FF27591BFA
:1003700099F0593F50F4503E68F11A16F040A22F00
:10038000232F342F4427585FF3CF46953795279571
:10039000A795F0405395C9F77EF41F16BA0B620B70
:1003A000730B840BBAF09150A1F0FF0FBB1F661FB7
:1003B000771F881FC2F70EC0BA0F621F731F841FFA
:1003C00048F4879577956795B795F7959E3F08F020
:1003D000B0CF9395880F08F09927EE0F97958795E2
:1003E00008950E94500288F09F5798F0B92F9927DE
:1003F000B751B0F0E1F0660F771F881F991F1AF010
:10040000BA95C9F714C0B13091F00E946A02B1E008
:1004100008950C946A02672F782F8827B85F39F007
:10042000B93FCCF3869577956795B395D9F73EF4A8
:1004300090958095709561957F4F8F4F9F4F089550
:1004400097F99F6780E870E060E008959FEF80EC87
:10045000089500240A94161617061806090608952A
:1004600000240A9412161306140605060895092E90
:100470000394000C11F4882352F0BB0F40F4BF2BFF
:1004800011F460FF04C06F5F7F4F8F4F9F4F08953F
:1004900057FD9058440F551F59F05F3F71F0479535
:1004A000880F97FB991F61F09F3F79F0879508951A
:1004B000121613061406551FF2CF4695F1DF08C039
:1004C000161617061806991FF1CF86957105610556
:1004D00008940895E894BB2766277727CB0197F9FE
:1004E00008950E9484020C9437020E94290238F079
:1004F0000E94300220F0952311F00C9420020C94FD
:10050000260211240C946B020E94480270F3959FFE
:10051000C1F3950F50E0551F629FF001729FBB27FA
:10052000F00DB11D639FAA27F00DB11DAA1F649F96
:100530006627B00DA11D661F829F2227B00DA11D49
:10054000621F739FB00DA11D621F839FA00D611DCF
:10055000221F749F3327A00D611D231F849F600DF0
:10056000211D822F762F6A2F11249F5750409AF019
:10057000F1F088234AF0EE0FFF1FBB1F661F771FA5
:10058000881F91505040A9F79E3F510580F00C9470
:1005900020020C946B025F3FE4F3983ED4F38695FF
:1005A00077956795B795F795E7959F5FC1F7FE2B10
:1005B000880F911D9695879597F90895F894FFCF28
:0405C00031003200D4
:00000001FF
